:0400000063EF00F0BA
:060008004F825BEF0CF0DB
:100018004F80D8CF09F0E8CF0AF0E0CF0BF0FACF45
:100028000CF0FBCF0DF0D9CF0EF0DACF0FF09DA872
:1000380020EF00F022EF00F038EF00F09EA827EF45
:1000480000F029EF00F038EF00F002D836EF00F0AA
:100058000500FA6E3550FD6E3650FE6EF850FF6E94
:10006800FA50120053EF00F09DAA3DEF00F03FEF69
:1000780000F053EF00F09EAA44EF00F046EF00F0C6
:1000880053EF00F002D853EF00F00500FA6E33503A
:10009800FD6E3450FE6EF850FF6EFA5012000FC01D
:1000A800DAFF0EC0D9FF0DC0FBFF0CC0FAFF0BC072
:1000B800E0FF0AC0E8FF09C0D8FF4F901000E5EF45
:0200C8000BF03B
:100F000000000000000000000000000000000000E1
:100F100000000000000000000000000000000000D1
:070F20000025750D0A000019
:100F2800C3EC0DF0F28EF28CF28C030EE3EC0DF0B4
:100F3800800E1E6E1A0E1F6E060E206E8FEC0CF0C1
:100F4800000E3D6E000E3C6E010E376E000E426EB6
:100F5800000E436E000E396E000E3A6E000E3B6EA8
:100F6800030E4E6E84B4BBEF07F0BDEF07F012EF2F
:100F780008F0020E0001C56FA00EC46F920EE82E95
:100F8800FED7C42FFCD7C52FFAD700F084B4CFEF13
:100F980007F0D1EF07F012EF08F084A4D6EF07F0BE
:100FA800D8EF07F0D1EF07F08BB2DDEF07F0E0EFF5
:100FB80007F0010EE1EF07F0000EFF0A0001C46F11
:100FC800C4478B50C419FD0BC4198B6E8B80520E0D
:100FD8000001C56F2B0EC46F000EE82EFED7C42F7C
:100FE800FCD7C52FFAD700F08B90F29EF29C000E2A
:100FF800456E000E3D6E000E3C6E010E446E000EF6
:10100800426E000E436E000E396E000E3A6E000EF0
:101018003B6E9D8C010E4E6EF28EF28C84B217EFF1
:1010280008F019EF08F07CEF08F0020E0001C56F18
:10103800A00EC46F920EE82EFED7C42FFCD7C52F82
:10104800FAD700F084B22BEF08F02DEF08F07CEF10
:1010580008F084A232EF08F034EF08F02DEF08F022
:101068008BB239EF08F03CEF08F0010E3DEF08F0C5
:10107800000EFF0A0001C46FC4478B50C419FD0B52
:10108800C4198B6E8B80520E0001C56F2B0EC46F76
:10109800000EE82EFED7C42FFCD7C52FFAD700F0D4
:1010A8008B90F29EF29C000E456E000E3D6E000E77
:1010B8003C6E010E376E000E426E000E436E000E3F
:1010C800396E000E3A6E000E3B6E9D9C3CC011F0CE
:1010D8003DC012F0800E136E010E146EFEEC09F086
:1010E8003C4A3D2A2DEC0EF0020E4E6EF28EF28C2A
:1010F8004E04D8A482EF08F084EF08F0DCEF08F083
:101108004204D8A48AEF08F08CEF08F0A0EF08F0AA
:10111800000E426E3CC011F03DC012F0800E136EFE
:10112800010E146E72EC0AF03C4A3D2A800E3926F4
:10113800000E3A22000E3B224304D8A4A6EF08F082
:10114800A8EF08F0BCEF08F0000E436E3CC011F0A9
:101158003DC012F0800E136E020E146E72EC0AF08F
:101168003C4A3D2A800E3926000E3A22000E3B22C8
:10117800000E395CF40E3A58010E3B58D8A0C7EF60
:1011880008F0C9EF08F0B6EF07F0030E4E6E8B803B
:10119800520E0001C56F2B0EC46F000EE82EFED74D
:1011A800C42FFCD7C52FFAD700F08B90B6EF07F005
:1011B800020E4E18D8A4E3EF08F0E5EF08F074EF3C
:1011C80009F04D50D8A4EBEF08F0EDEF08F016EF5A
:1011D80009F0F29E010E4D6EF28E3704D8A4F7EF97
:1011E80008F0F9EF08F004EF09F0800E4524D96EF5
:1011F800DA6A010EDA22DF50D4EC0DF016EF09F0AE
:10120800020E3718D8A40BEF09F00DEF09F016EF0E
:1012180009F0800E4524D96EDA6A020EDA22DF5010
:10122800D4EC0DF04550D8A41CEF09F01EEF09F0DE
:1012380034EF09F03704D8A424EF09F026EF09F0B9
:1012480034EF09F03CC011F03DC012F0800E136E6F
:10125800020E146EFEEC09F03C4A3D2A51EF09F0EB
:101268004550D8A43AEF09F03CEF09F051EF09F0E6
:10127800020E3718D8A443EF09F045EF09F051EFF3
:1012880009F03CC011F03DC012F0800E136E010E43
:10129800146EFEEC09F030EF09F0000E395CF40E24
:1012A8003A58010E3B58D8A05CEF09F05EEF09F000
:1012B800B6EF07F0000ED4EC0DF0030E4E6E8B80E7
:1012C800520E0001C56F2B0EC46F000EE82EFED71C
:1012D800C42FFCD7C52FFAD700F08B90B6EF07F0D4
:1012E800B6EF07F063EF00F0000E196E17BE81EF3E
:1012F80009F07FEF09F08BEF09F0171E161E151E77
:10130800146C000E152216221722010E196E13BE38
:1013180092EF09F090EF09F09CEF09F0131E121EEE
:10132800111E106C000E112212221322010E191A1E
:10133800000E1A6E000E1B6E000E1C6E000E1D6E47
:101348001450151016101710D8B4ADEF09F0AFEF00
:1013580009F0E5EF09F0010E186EB9EF09F0D89021
:101368001436153616361736182A17AEBEEF09F09A
:10137800C0EF09F0B3EF09F0D8901A361B361C36C7
:101388001D361450105C155011581650125817502D
:101398001358D8A0D2EF09F0D4EF09F0DDEF09F027
:1013A8001450105E1550115A1650125A1750135AED
:1013B8001A80D8901732163215321432182EC0EF10
:1013C80009F01950D8B4EBEF09F0EDEF09F0F5EF9B
:1013D80009F01D1E1C1E1B1E1A6C000E1B221C224F
:1013E8001D221AC010F01BC011F01CC012F01DC045
:1013F80013F01200040E125CD8B005EF0AF007EFE4
:101408000AF071EF0AF011C015F012C016F0070EBD
:10141800D89015361636E82E0CEF0AF015C019F0DC
:1014280016C01AF01B6A1C6A10EC0EF019C015F0F1
:101438001AC016F01BC017F01CC018F00E0E2AEFC9
:101448000AF0D8901832173216321532E82E25EFE6
:101458000AF01550080BA009F0EC0DF01A50F0EC4A
:101468000DF01950F0EC0DF010EC0EF019C015F05D
:101478001AC016F01BC017F01CC018F00E0E4AEF69
:101488000AF0D8901832173216321532E82E45EF86
:101498000AF01550080BA109F0EC0DF0000E1D6EB6
:1014A8001D501324D96E000E1420DA6E000E30EC95
:1014B8000DF0DF6E1D2A7E0E1D6465EF0AF067EFE2
:1014C8000AF054EF0AF01D501324D96E000E1420B0
:1014D800DA6E010E30EC0DF0DF6E1200040E125CB5
:1014E800D8B079EF0AF07BEF0AF0E3EF0AF011C009
:1014F80015F012C016F0070ED89015361636E82EDD
:1015080080EF0AF015C01AF016C01BF01C6A1D6A9D
:1015180010EC0EF01AC015F01BC016F01CC017F026
:101528001DC018F00E0E9EEF0AF0D8901832173230
:1015380016321532E82E99EF0AF01550080BA0095B
:10154800F0EC0DF01B50F0EC0DF01A50F0EC0DF033
:10155800000E196E19501324D96E000E1420DA6E7D
:10156800DF50F0EC0DF0192A7F0E1964BEEF0AF077
:10157800C0EF0AF0AEEF0AF006EC0EF010EC0EF039
:101588001AC015F01BC016F01CC017F01DC018F0CB
:101598000E0ED4EF0AF0D8901832173216321532E0
:1015A800E82ECFEF0AF01550080BA009F0EC0DF06B
:1015B800C5BCE1EF0AF0E3EF0AF0C2EF0AF012004F
:1015C800600E4924D96EDA6A000EDA22000EDF6E48
:1015D800ABA4F1EF0AF0F3EF0AF008EF0BF0600E9E
:1015E8004924D96EDA6A000EDA220001DF8202D8B5
:1015F80008EF0BF00500FA6E3150FD6E3250FE6EAA
:10160800F850FF6EFA501200ABA20DEF0BF00FEF7F
:101618000BF024EF0BF0600E4924D96EDA6A000E45
:10162800DA220001DF8402D824EF0BF00500FA6EFD
:101638002F50FD6E3050FE6EF850FF6EFA501200BB
:10164800600E4924D96EDA6A000EDA22DF50D8B467
:1016580030EF0BF032EF0BF041EF0BF002D83FEF19
:101668000BF00500FA6E2D50FD6E2E50FE6EF850F0
:10167800FF6EFA50120043EF0BF061EC0DF0120010
:101688001AEC0EF001C03EF002C03FF04E04D8A4A0
:1016980050EF0BF052EF0BF09BEF0BF04404D8A483
:1016A80058EF0BF05AEF0BF078EF0BF0800E452453
:1016B800D96EDA6A010EDA223FC0DFFF452A800EB2
:1016C8004518D8A46AEF0BF06CEF0BF09BEF0BF00A
:1016D800020E446E000E456E000E436E010E426E01
:1016E8009BEF0BF09BEF0BF0020E4418D8A47FEF92
:1016F8000BF081EF0BF09BEF0BF0800E4524D96EB9
:10170800DA6A020EDA223FC0DFFF452A800E45184A
:10171800D8A491EF0BF093EF0BF076EF0BF0010EDE
:10172800446E000E456E000E426E010E436E1200AE
:10173800020E4E18D8A4A3EF0BF0A5EF0BF0E4EFC0
:101748000BF0000E4D6E3704D8A4ADEF0BF0AFEFE1
:101758000BF0C7EF0BF0010E3926000E3A22000EEF
:101768003B22452A800E4518D8A4BDEF0BF0BFEFE9
:101778000BF0E4EF0BF0000E456E020E376EE4EF4F
:101788000BF0E4EF0BF0020E3718D8A4CEEF0BF0F5
:10179800D0EF0BF0E4EF0BF0010E3926000E3A22E1
:1017A800000E3B22452A800E4518D8A4DEEF0BF028
:1017B800E0EF0BF0C5EF0BF0000E456E010E376E33
:1017C8001200C60EF66E1C0EF76E000EF86E0900BB
:1017D800F5CF4CF00900F5CF4DF00900F5CF4EF0EC
:1017E80003EE00F0800EEE6AE806FDE102EE00F07E
:1017F80011EE00F0EE6AE550E150FCE1E250FAE14A
:1018080001EE00F011EE00F0EE6AE550E150FCE167
:10181800E250FAE100EE60F0640EEE6AE806FDE1DF
:1018280000EE39F0130EEE6AE806FDE14F904F9294
:10183800000EF86E000194EF07F09D9AC80E106E26
:10184800150E116E44EC0EF09D98780E106E190E60
:10185800116E3FEC0EF0080EA76E900EAB6E240EC4
:10186800AC6E8A0EAF6E000E7D6ECA0E106E1C0E28
:10187800116E4EEC0EF0BA0E106E1C0E116E49EC85
:101888000EF0C00E106E1C0E116E53EC0EF0000E12
:10189800466E000E4B6E000E4A6E400E386E000EFD
:1018A800496E000E486E000E476E9D8A1200FACFF0
:1018B80005F0FBCF06F0D9CF07F0DACF08F09DACE2
:1018C80068EF0CF06AEF0CF075EF0CF09EAC6FEF60
:1018D8000CF071EF0CF075EF0CF049EC0DF085EFA2
:1018E8000CF09DA07AEF0CF07CEF0CF085EF0CF07B
:1018F8009EA081EF0CF083EF0CF085EF0CF0DCEC90
:101908000CF008C0DAFF07C0D9FF06C0FBFF05C00E
:10191800FAFF4F92110094869488C78EC79C280EB0
:10192800C612C550000E106E900E116ED00E126EBB
:10193800030E136E020E216E1EC022F01FC023F08C
:1019480020C024F02128ADEF0CF0D89022362336A1
:101958002436E82EA9EF0CF02250146E2350156E91
:101968002450166E176A78EC09F01004C86E12003D
:10197800400E3860C2EF0CF0C4EF0CF0DAEF0CF058
:10198800400E4A24D96EDA6A010EDA22DF50AD6EB3
:101998004A2A3F0E4A64D3EF0CF0D5EF0CF0D7EF8C
:1019A8000CF0000E4A6E382ADBEF0CF09D981200FE
:1019B8009E902BC001F02CC002F08AEC0DF029504B
:1019C8002A10D8B4EAEF0CF0ECEF0CF0F9EF0CF0B9
:1019D80002D8F9EF0CF00500FA6E2950FD6E2A5076
:1019E800FE6EF850FF6EFA5012001200000EAA6E3A
:1019F800CF68060ECE6E9E90CE50CFCF12F0136AEF
:101A080012C013F0126A12102B6E13502C6E9D80A8
:101A1800380E106E170E116E3AEC0EF0310ECD6EB8
:101A28001200000E8D6E000E8C6E000E896E000E78
:101A38008A6E000E8B6E070E966EEF0E926E93688E
:101A4800BC0E946E95683F0E0F015D6F7F0E5C6F44
:101A5800000E5B6FF18E1200106EC790C586C7A08E
:101A680038EF0DF03AEF0DF033EF0DF010B002D073
:101A7800C59A01D0C58AC588C5B845EF0DF047EFAE
:101A88000DF040EF0DF0C95012009E9C2750281011
:101A9800D8B451EF0DF053EF0DF060EF0DF002D810
:101AA80060EF0DF00500FA6E2750FD6E2850FE6EAF
:101AB800F850FF6EFA5012001200000E4924D96E39
:101AC800DA6A010EDA22AECFDFFF492A3F0E4964F7
:101AD80070EF0DF072EF0DF074EF0DF0000E496E1F
:101AE800472A1200CDA47BEF0DF07DEF0DF085EFB6
:101AF8000DF0CD901150CF6E10C0CEFFCD8089EF84
:101B08000DF01150CF6E10C0CEFF1200CDA48FEF94
:101B18000DF091EF0DF099EF0DF0CD900250CF6ED2
:101B280001C0CEFFCD809DEF0DF00250CF6E01C0F9
:101B3800CEFF1200D59CD7685F0ED66ED650D7CF91
:101B480010F0116A10C011F0106A1010256E1150B3
:101B5800266EF294970ED56E1200010EC26E800E9C
:101B6800C16E0E0EC06E000EC46E000EC36E9D8C4C
:101B7800880E106E160E116E58EC0EF0120034EC32
:101B88000EF0FCEC0DF015EC0DF024EC0EF0B1ECC1
:101B98000DF0FAEC0CF09EEC0DF021EC0CF01200BC
:101BA800116E10EC0EF0580EF0EC0DF0000EF0EC8B
:101BB8000DF01150F0EC0DF006EC0EF01200116E65
:101BC80011C010F010461046C2501018830B1018A0
:101BD800C26EC280C2821200106E10C0C9FF9EA6DB
:101BE800F8EF0DF0FAEF0DF0F3EF0DF09E961200FE
:101BF800000EC76E080EC66E000EC56E270EC86EA4
:101C0800C69A1200C584C5B40CEF0EF00EEF0EF0A4
:101C180007EF0EF09E961200C580C5B016EF0EF0C5
:101C280018EF0EF011EF0EF09E961200C450046EDD
:101C3800036AC3500324016E000E0420026E1200D2
:101C4800600ED36E000ED26E000E9B6E000E9A6E62
:101C580012002BC010F02CC011F076EC0DF0120021
:101C6800D08E9F8C9F809F989F9A120010C029F059
:101C780011C02AF0120010C035F011C036F0120061
:101C880010C033F011C034F0120010C02FF011C092
:101C980030F0120010C031F011C032F0120010C044
:101CA8002DF011C02EF0120010C027F011C028F03E
:101CB8001200AB98AB88120061EC0DF01200010124
:011CC8000318
:021CCA00120006
:020000040020DA
:08000000FFFFFFFFFFFFFFFF00
:020000040030CA
:0E00000015137F7CFF8991FF0FC00FE00F40AA
:00000001FF
