:0400000045EF00F0D8
:100008000F82FACF01F0FBCF02F0F2AA0EEF00F058
:1000180010EF00F01BEF00F0F2A415EF00F017EF5F
:1000280000F01BEF00F047EC00F03FEF00F0F2A803
:1000380020EF00F022EF00F02DEF00F0F2A227EF02
:1000480000F029EF00F02DEF00F009EC01F03FEF90
:1000580000F0F2A632EF00F034EF00F03FEF00F0CE
:10006800F2A039EF00F03BEF00F03FEF00F014ECA6
:1000780001F03FEF00F002C0FBFF01C0FAFF0F9252
:100088001100F3EF00F0F2940950D76E08C0D6FFC4
:100098000A500B10D8B453EF00F055EF00F062EFA0
:1000A80000F002D862EF00F00500FA6E0A50FD6E0B
:1000B8000B50FE6EF850FF6EFA501200010E0E6ED5
:1000C8008C8012EC01F01200D5EC00F010EC01F07D
:1000D800F28EF28CF28C0E04D8A475EF00F077EF54
:1000E80000F06FEF00F0000E0E6E8C802A0E076E87
:1000F8008E0EE82EFED7072EFCD78C906FEF00F0FF
:1001080045EF00F0000E8D6E000E8C6E000E896EAD
:10011800000E8A6E000E8B6E070E966EEF0E926EB4
:100128009368FD0E946EF80E956E3F0E0F015D6F8D
:10013800430E5C6F000E5B6FF18EF2861200D59C49
:10014800F00ED76E5F0ED66ED650D7CF05F0066A82
:1001580005C006F0056A0510086E0650096EF2948F
:10016800F28A2C0E036E020E046EFBEC00F0910E68
:10017800D56E12000C500D10D8B4C5EF00F0C7EFC3
:1001880000F0D4EF00F002D8D4EF00F00500FA6ECA
:100198000C50FD6E0D50FE6EF850FF6EFA501200B6
:1001A800120005EC01F086EC00F0EAEC00F0E0EC5F
:1001B80000F0A3EC00F01200F292F19C1A0E036E0C
:1001C800020E046E00EC01F0F2881200600ED36E8D
:1001D800000ED26E000E9B6E000E9A6E12000E6A12
:1001E8000F900F92000EF86E000168EF00F003C048
:1001F8000AF004C00BF0120003C00CF004C00DF0AC
:100208001200D08EF184F1801200F292BEEC00F060
:100218001200010E0E6E1200D59E1200D59E12001D
:06022800F290120012002A
:020000040020DA
:08000000FFFFFFFFFFFFFFFF00
:020000040030CA
:0E00000015137F7CFF8991FF0FC00FE00F40AA
:00000001FF
